:100DF40056616C6F7220416E616C6F6769636F3A04
:100E0400202566202044757479204379636C653A03
:050E14002025640A0026
:100DA60002180000020C0000020A0000020E0000F9
:100DB600041A0000000004140000000004100000E3
:060DC60000000208001409
:100B600075D78075EF80120E19120E23E4F518F573
:100B700019E5D854F04404F5D8D2DC20DCFDE5DAE0
:100B8000540FADD9F50CEDF50D250BF50BE50C3536
:100B90000AF50A0519E51970020518641045187060
:100BA000D0E50AC4F854F0C868FCE50BC4540F48FB
:100BB000FDE412021B8F138E128D118C107F007EAC
:100BC000407D4E7C45AB13AA12A911A8101201A9B1
:100BD000601B4019C3E5099414E5086480948040C3
:100BE0000C74EC2509F50974FF3508F508E4FFFEDF
:100BF0007D2F7C45AB13AA12A911A8101201A95090
:100C000017E50994EBE5086480948F500B74142564
:100C100009F509E43508F508E4FFFE7D2F7C45ABB6
:100C200013AA12A911A8101201A9401D7F007E402D
:100C30007D4E7C45AB13AA12A911A8101201A96020
:100C4000025006850808850909E4F50AF50B7FE5D9
:100C50007EFF7D9F7C3AAB13AA12A911A810120047
:100C6000038F178E168D158C14AE08AF09EE3395D1
:100C7000E0FDFCE47BFF7AFFF9F8120590E47BFFCE
:100C80007A0FF9F8120D628E0E8F0FE50EF5B2E5B0
:100C90000FF5B1AC0EAD0FE412021BE4FBFA79C8FC
:100CA00078421200037B007AFF797F784712010CAB
:100CB0008F1D8E1C8D1B8C1A7BFF7A0D79F485138A
:100CC0002885122785112685102585082985092A5A
:060CD000120753020B6C39
:0A0E1900759E85759D2D7598522277
:0A0E230075AE9375B4FF75B3FF229E
:10000300EC4D6011E8497017ED33EC3304600DE4F7
:10001300FCFFFEFD22E933E8330470F80202891283
:10002300025458046009E4CC248150062850090284
:100033000293284003020290C0E0EB4A7044B98067
:1000430006D0E0FB02027FEF4E701CBD8008EBFF81
:10005300EAFEE9FD80EBE98DF0A4FEE5F00200EC99
:10006300E9CDF9EAFEEBFFEF89F0A4FCE5F0CE89D8
:10007300F0A42EFFE435F0CD89F0A42DFEE435F095
:100083008067EF4E7005BD80D780C3EF8BF0A4ACC3
:10009300F0EE8BF0A42CFCE435F0F8EF8AF0A42CFE
:1000A300E5F038FCE433CB8DF0A42CFCE5F03BF811
:1000B300EE8AF0A42CFCE5F038F8E433CF89F0A401
:1000C3002CFCE5F038CF3400CE89F0A42FFFE5F007
:1000D3003EFEE433C98DF0A42EFEE5F039CD8AF05F
:1000E300A42FFFE5F03EFEE43DFD33D0E0FB5007D7
:1000F3000BBB000F020293EC2CFCEF33FFEE33FE3D
:06010300ED33FD02026B6A
:10010900020293EC5D046005E85904700302028958
:10011900120254580460F6EC4860F2EC7004FDFEDB
:10012900FF22C860DB2481C85009C39860025006C9
:100139000202909850CAF582E9294B4A7005AB82B0
:1001490002027F75F0007C1A7880C3EF9BEE9AED6E
:1001590099400DC3EF9BFFEE9AFEED99FDE842F041
:10016900DC23ACF0D0E0FFD0E0FED0E0FDAB822094
:10017900E7101BEB60BAEC2CFCEF33FFEE33FEED1E
:1001890033FD02026BE803F830E705C0F075F000B3
:10019900EF2FFFEE33FEED33FD40B830E7C280AA02
:1001A90074F8CC6480CCC86480C8F582046043C309
:1001B900EB9FF5F0EA9E42F0E99D42F0E89C45F09C
:1001C90060305018E5825FFFE582F42B5582FB50C1
:1001D900210ABA001D09B90019088016E5825BFBDE
:1001E900E582F42F5582FF50090EBE00050DBD00B2
:1001F900010CC3EB9FF5F0EA9E42F0E99D42F0E85D
:0D0209009C45F06007CC4820E701B3EC22D3
:1002160075F020800E75F010800575F0087D007E63
:10022600007F003392D530D5031205DFEC33401042
:10023600EF33FFEE33FEED33FDEC33FCD5F0ED226C
:0E024600E5F0247EA2D513CC92E7CDCEFF22A8
:1006F100E5392425F8E605392278223007027825E4
:10070100E475F0011205ED0205382000EB7F2ED2D1
:10071100008018EF540F2490D43440D4FF30040BE0
:10072100EF24BFB41A0050032461FFE53A600215BB
:100731003A053DE53D7002053C30070D7822E47530
:10074100F0011205EDEF02057E020DCD7403D20713
:100751008003E4C207F5398B228A238924E4F53A20
:10076100F53CF53DE53A60077F2012072C80F575D1
:100771003BFFC201C200C202C203C205C206C208D7
:100781001206FAFF700D3007057F0012073DAF3DDD
:10079100AE3C22B4255FC2D5C2041206FAFF24D0B2
:1007A100B40A00501A75F00A783A30D50508B6FF38
:1007B1000106C6A426F620D5047002D20380D924EE
:1007C100CFB41A00EF5004C2E5D204020A2AD201C2
:1007D10080C6D20080C0D20280BCD2D580BAD205F8
:1007E10080B47F2012072C2002077401B53A004023
:1007F100F11206F1FF12072C020765D208D206801A
:10080100951206F1FB1206F1FA1206F1F94A4B7044
:100811000679217A0B7BFF20022EE53A602A7E00C1
:100821008E8275830012055160060EEE653B70F0F5
:10083100C2D5EBC0E0EAC0E0E9C0E0EE120A8AD01E
:10084100E0F9D0E0FAD0E0FB120538FF60AAEBC076
:10085100E0EAC0E0E9C0E012072CD0E02401F9D0C1
:10086100E03400FAD0E0FBE53B0460DCD53BD98005
:1008710087D20280A2120A6D60F7E53B7001041273
:10088100029EA93B600DE53B600914F53B120B1478
:10089100EF60F3EA30E702F404C3995077EAF425F4
:1008A1003B0430E701E404F53B800D120A6D60C1A1
:1008B100EA053B253B12029EEA7838F630E701E46F
:1008C100253B04D53B0420050114120A8AE4C0E04B
:1008D100120B147838E6601320E70714F612071498
:1008E100802204F6D0E014C0E07F00120714E53B3B
:1008F100600712070B153B800B30050312070BD065
:10090100E0020765D0E00480C5120A6D60A0E53BF6
:100911000412029E7838EAF6E53B200502600104E4
:050921002404120A8A03
:1009260074FF04C0E0120B14120714E53B20050205
:10093600600312070BD0E0B53BE87F4512071E782F
:1009460038E67F2B30E7047F2DF404C0E012072C35
:10095600D0E075F00A84C0F0120715D0E012071532
:10096600020765791080027908C206C2088008D29B
:10097600D5790A8004790AC2D5E53B047002F53BB5
:10098600E4FAFDFEFF1206F1FC7B082001131206B5
:10099600F1FD7B1030000A1206F1FE1206F1FF7B14
:1009A60020EC3382D592D55013C3E43000069FFF66
:1009B600E49EFEE42001039DFDE49CFCE4CBF8C22A
:1009C60001EC700CCFCECDCCE824F8F870F380178C
:1009D600C3EF33FFEE33FEED33FDEC33FCEB33FBBD
:1009E600994002FB0FD8E9EB300105F8D0E0C44886
:1009F600B201C0E00AEC4D4E4F78207B0070C2EA8F
:100A0600B53B0040BCC0E0120A8CD0F0D0E020011B
:100A160004C4C0E0C4B201C0F0120715D0F0D5F08E
:100A2600EB0207651205FD08025309695807D34C06
:100A360007CF42096D4F09754409754907E843090F
:100A46007B5508AC46090A450876470B415007D73F
:100A56002D07DB2E07FE2B07DF2307FC200B2A2A98
:100A6600079748000007F6E53BB4FF03753B0612FF
:100A760006F1FC1206F1FD1206F1FE1206F1FF78F0
:100A8600310202CD790AA2D5200314300509B91026
:100A9600020404B9080104A2D5200602500104206C
:100AA60002689202B53A005034C0E07F2030031944
:100AB6007F30A20272067205500F120AE3C202C20A
:100AC60006C205C2087F30800F300503E9C0E01278
:100AD600072C300503D0E0F9D0E0B53ACC30051745
:100AE6007F30B9100C12072C7F583004077F7880AE
:100AF60003B9080312072C3002057F2D02072C7F4D
:100B0600202008F87F2B2006F322920280CF7F0058
:100B1600B4070050052431F8E6FF22286E756C6C88
:100B26002900D2011206F13001F8C201783A30D517
:100B36000108F60207972D504349581206F124037F
:100B4600B405004001E4900B3C9312071D743A1261
:0A0B5600071DD203753A0402096975
:10025400E9D2E7C933E833F892D5EDD2E7CD33ECF0
:0702640033FC5002B2D52269
:10026B00EC30E7100FBF000C0EBE00080DBD0004F4
:10027B000BEB6014A2D5EB13FCED92E7FD2274FFA0
:10028B00FCFDFEFF22E480F8A2D574FF13FC7D80F9
:03029B00E480EF0D
:10029E00F920E72824F950037907E4F42402FB1827
:1002AE00DBFDE624FB5014E9600DE4F618E604F6D7
:0F02BE00B40A08E4F6D9F57401F60A22C2D52273
:1002CD00ED33EC3392D5FA602AB4FF33EDC2E77B00
:1002DD00FF60067A0279F2E4227A0279FB20D504D6
:1002ED007A0279F6224E614E002B494E46002D4979
:1002FD004E4600E47A08F608DAFC7B00740722E823
:10030D00C0E0ECC0E0EDC0E0EEC0E0EFC0E0EA75AB
:10031D00F010A4CAABF075F04DA42BFBE435F0FC46
:10032D00EA2410FAEB34C5FBEC34D9FCEDC2E7FF3F
:10033D0075F056A4F42411C5F0F434C58FF0A42A39
:10034D00E5F03BE43CF620E7141204F8D0E0FFD0D2
:10035D00E0FED0E0FDD0E0FC12010C8014F404129C
:10036D0004F8D0E0FFD0E0FED0E0FDD0E0FC1200BC
:10037D0003D0E0F8E6FAEDD2E7CD33EC332482FB7F
:10038D00E4C3CF33CFCE33CECD33CD33DBF37B07C9
:10039D0075F00A846004F6081B0AE5F0F6088FF084
:1003AD00740AA4FFACF08EF0740AA42CFEACF050CD
:1003BD00010C8DF0740AA42CFDE435F0F608DBDE9B
:0303CD0074072290
:1003D000020289E86480F8E933E83360110460F0D0
:1003E000ED33EC337009E8FCE9FDEAFEEBFF220493
:1003F00060DED3EB9FEA9EE99DE8C2E78CF0C2F78E
:1004000095F0400CE8CCF8E9CDF9EACEFAEBCFFB59
:1004100012025485D0F05804700320D5B3E804705C
:10042000075002B2D502029392D5EC0460F7E4CCF7
:10043000C0E0C398F8603B94186008400DD0E0FB22
:1004400002026BE4FBFAC9FC8028E830E406E4C948
:10045000FBE4CAFCE830E305E4C9CACBFCE8540776
:100460006010F8C3E913F9EA13FAEB13FBEC13FC81
:10047000D8F130F52FC3E49CFCEF9BFFEE9AFEED24
:1004800099FDD0E0FBEF4E4D4C701222DB030202CF
:1004900090EC2CFCEF33FFEE33FEED33FDED30E757
:1004A000EB02026BEF2BFFEE3AFEED39FDD0E0FBE5
:1004B00050130BBB0003020293ED13FDEE13FEEF8E
:0804C00013FFEC13FC02026BB8
:1004C8003F8000004120000042C80000447A00003C
:1004D800461C400047C35000497424004B189680BE
:1004E8004CBEBC205A0E1BCA6753C21C749DC5AEB5
:1004F800FB60065407601C2323120526EB54386062
:1005080009120512120521120003ECF8EDF9EEFAB2
:10051800EFCB22EB12052180F1543803241C900400
:10052800C8FE93FC0EEE93FD0EEE930ECE93FF22C3
:03000000020CD619
:0C0CD600787FE4F6D8FD75813D020D1D0D
:10053800BB010689828A83E0225002E722BBFE02C1
:09054800E32289828A83E49322F4
:10055100BB010CE58229F582E5833AF583E022505F
:1005610006E92582F8E622BBFE06E92582F8E222A9
:0D057100E58229F582E5833AF583E49322C3
:10057E00BB010689828A83F0225002F722BBFE015C
:02058E00F32256
:10059000E88FF0A4CC8BF0A42CFCE98EF0A42CFC0A
:1005A0008AF0EDA42CFCEA8EF0A4CDA8F08BF0A488
:1005B0002DCC3825F0FDE98FF0A42CCD35F0FCEBE7
:1005C0008EF0A4FEA9F0EB8FF0A4CFC5F02ECD39AC
:0F05D000FEE43CFCEAA42DCE35F0FDE43CFC2219
:100D6200C2D5E830E70FB2D5E4C39BFBE49AFAE4BC
:100D720099F9E498F8EC30E717B2D5120D981206FB
:100D82005FE4C39BFBE49AFAE499F9E498F88003E0
:100D920012065F30D50DE4C39FFFE49EFEE49DFD85
:040DA200E49CFC22AF
:0E05DF00C3E49FFFE49EFEE49DFDE49CFC222D
:1005ED00FAE6FB0808E6F925F0F618E6CA3AF6220F
:1005FD00D083D082F8E4937012740193700DA3A38D
:10060D0093F8740193F5828883E4737402936860A0
:06061D00EFA3A3A380DFA0
:100DCD00EFB40A07740D120DD8740A309811A89952
:100DDD00B8130CC2983098FDA899C298B811F63086
:070DED0099FDC299F599225E
:100CE200020B60E493A3F8E493A34003F68001F2BD
:100CF20008DFF48029E493A3F85407240CC8C33313
:100D0200C4540F4420C8834004F456800146F6DFE1
:100D1200E4800B0102040810204080900DA6E47EBE
:100D2200019360BCA3FF543F30E509541FFEE493D6
:100D3200A360010ECF54C025E060A840B8E493A39D
:100D4200FAE493A3F8E493A3C8C582C8CAC583CAC8
:100D5200F0A3C8C582C8CAC583CADFE9DEE780BE80
:010DCC000026
:1006230075F008758200EF2FFFEE33FECD33CDCC8E
:1006330033CCC58233C5829BED9AEC99E582984011
:100643000CF582EE9BFEED9AFDEC99FC0FD5F0D6EE
:10065300E4CEFBE4CDFAE4CCF9A88222B800C1B918
:100663000059BA002DEC8BF084CFCECDFCE5F0CB56
:10067300F97818EF2FFFEE33FEED33FDEC33FCEB8F
:1006830033FB10D703994004EB99FB0FD8E5E4F94A
:10069300FA227818EF2FFFEE33FEED33FDEC33FC37
:1006A300C933C910D7059BE99A4007EC9BFCE99A2B
:1006B300F90FD8E0E4C9FAE4CCFB2275F010EF2F70
:1006C300FFEE33FEED33FDCC33CCC833C810D70770
:1006D3009BEC9AE899400AED9BFDEC9AFCE899F8AB
:0E06E3000FD5F0DAE4CDFBE4CCFAE4C8F9223E
:00000001FF
